:020000040808EA
:100000000000080818650808000006000A0005013D
:0800100004027E05000000005F
:04001800105D080867
:1000200009480A4908B5884205D0094A824202D0E7
:10003000121A04F021F80748074A0021121A04F0A6
:1000400026F8064808BD00BF000000203C640808F0
:10005000B0000020B00000208C0800208C08002098
:1000600070B501F0D7FC074B074C1E46E41AA408F4
:100070000025A54204D056F8253098470135F8E709
:1000800070BD00BFE46308082464080800F068BA83
:1000900008B500F0DBF8BDE8084001F07DBC01F0D8
:1000A000EDB801F0F3B80078B0FA80F0400970477D
:1000B00001230370704703681847012A02D0022AFF
:1000C00002D004E0016002E00B6800B10360002090
:1000D000704700007FB501F0D8FAC0B28DF8070074
:1000E00098B10B498B7883420ED3103102A801F0EE
:1000F0001EFA02AA0DF10701064800F085FD02A8CC
:1001000001F0CEF9012000E0002007B05DF804FB0B
:10011000B8000020E000002070B5084D084E002413
:10012000F3789C4209DAD6E90223E1B2054800F0EF
:100130005BFE0134E5E90201F2E770BDD001002069
:10014000B800002040010020436913B183690C30DE
:100150001847704713B504460021084600F0F2FE28
:1001600002A90023204641F8043D00F003FF019C52
:100170000CB1012323710021012000F0E3FE2CB11A
:10018000236820469B6898470023237102B010BD66
:100190001FB50A4C684601F0CAF9009904F1100035
:1001A00003F0A6FF684601F07BF902F079FB2822F4
:1001B0002146002000F0B6FE04B010BDB8000020BB
:1001C00010B58368044613B10322014698472046C0
:1001D00010BD07B58068002338B18DE80A00022100
:1001E00000F0D0FEB0FA80F0400903B05DF804FBE7
:1001F00038B5104B044603608368A3B16FF000412B
:100200000022FFF7E6FF0021A06800F0CBFE237973
:1002100003F0FF0513B100F08DFEF8E72946A06852
:1002200000F0A0FEA56004F10C00FFF7C9FF204616
:1002300038BD00BF2C5D080810B50446FFF7D8FF95
:1002400020461C2102F07DFB204610BD70B51B4EE0
:100250008CB0002473789C4222DA02F01EF8E5B2DA
:1002600002A917488DF8085000F04CFB003018BF69
:1002700001208DF8060002F012F8124902A88DF84C
:10028000075001F054F902AB0DF106020DF1070120
:100290000B4800F04FFB02A801F002F90134D9E746
:1002A000094902A802F0B0F802A801F013FB02F01D
:1002B0001BFF064BC3E900010CB070BDB800002065
:1002C000EC000020C80000203806002018010020A3
:1002D00038B5046805467CB16368013B63605BB96F
:1002E000236820469B689847A368013BA3601BB91D
:1002F00023682046DB689847284638BD30B591B062
:1003000001F0C3F9041E04DD1C4800F010FB844218
:1003100001DD002030E01A4D6C7002F0C1FA282295
:100320002946002000F0FEFD164908A801F0FFF85C
:100330000A22214604A801F04AF904A908A801F0FC
:1003400086F901460CA801F014F90F4B0C9A1B78A2
:100350000E498DF8003002A83C2301F0F5FC03A8FB
:10036000FFF7B6FF0CA801F09BF804A801F098F87D
:1003700008A801F095F8012011B030BDEC00002074
:10038000B8000020385D0808C0010020595D080849
:1003900030B591B001F079F9041E04DB1C4800F07F
:1003A0009BFC844201DD002030E01A4DAC7002F06D
:1003B00077FA28222946002000F0B4FD164908A843
:1003C00001F0B5F80A22214604A801F000F904A9B9
:1003D00008A801F03CF901460CA801F0CAF80F4B3F
:1003E0000C9A1B780E498DF8003002A83C2301F0CE
:1003F000ABFC03A8FFF76CFF0CA801F051F804A8B0
:1004000001F04EF808A801F04BF8012011B030BD02
:10041000E0000020B8000020625D0808C001002054
:10042000595D080830B591B001F02FF9431E072B34
:10043000044631D81A4DE87002F032FA28222946D3
:10044000002000F06FFD174908A801F070F80A229B
:10045000214604A801F0BBF804A908A801F0F7F8A8
:1004600001460CA801F085F80F4B0C9A1B780F4938
:100470008DF8003002A83C2301F066FC03A8FFF7CA
:1004800027FF0CA801F00CF804A801F009F808A84F
:1004900001F006F8012000E0002011B030BD00BFDF
:1004A000B8000020835D0808C0010020595D0808DD
:1004B000F0B591B001F0EEF802F016FE0022204BEC
:1004C00004460D4603F0D6F80646002834D11D4FE9
:1004D000C7E9024502F0E4F928223946304600F027
:1004E00021FD194908A801F022F8062322460093AD
:1004F00004A82B4601F07EF804A908A801F0A7F88B
:1005000001460CA801F035F8104B0C9A1B781049E5
:100510008DF8003002A83C2301F016FC03A8FFF779
:10052000D7FE0CA800F0BCFF04A800F0B9FF08A893
:1005300000F0B6FF012000E0002011B0F0BD00BFC8
:100540000000F03FB8000020A85D0808C0010020AE
:10055000595D08080246014801F0E6BAFD1A08088C
:10056000F0B5584E95B002F09BF928223146002094
:1005700000F0D0FC33786BB3282200210DEB020091
:1005800003F085FD504800F0D2F907464F4800F0CF
:10059000A3FB4F4B0822D3E90045CDE90C45344677
:1005A0004C4B8DF829701B788DF82A008DF82B2084
:1005B0008DF838300AAD0FCD0FC40FCD0FC495E8BC
:1005C000030084E8030002F06BF928223146002082
:1005D00000F0A8FC0024234622463F4901940094E1
:1005E0003E4800F03BFE3E4B22461B783B498DF8CF
:1005F00000300AA83C2301F0A7FB0BA8FFF768FE18
:1006000038493948FFF7A6FF38493948FFF7A2FFB4
:1006100038493948FFF79EFF38493948FFF79AFFB4
:1006200038493948FFF796FF2346092237493848A9
:1006300000F0F4FD374DF3789C4222DA364906A8E3
:1006400000F075FF0A22214602A800F0C0FF02A9AF
:1006500006A800F0FCFF01460AA800F08AFF05EB9F
:10066000C401002309220A9800F0D8FD0AA800F06E
:1006700017FF02A800F014FF06A800F011FF0134D4
:10068000D9E7002309222549254800F0C7FD254C5C
:1006900025490D4800F006F9002211462046FFF7D3
:1006A00098FDA06840B100236FF000428DE80C0077
:1006B00019461A4600F066FC034800F029F915B007
:1006C000F0BD00BFB8000020EC000020E0000020DA
:1006D00000000020C101002091010808C95D080840
:1006E000C0010020D5000808DE5D0808FD020808EA
:1006F000EA5D080825040808F65D08089103080863
:10070000025E0808B10408080E5E080818010020FF
:10071000215E0808D8010020315E0808C0000020D2
:10072000365E080820010020B9000020000000000B
:1007300070B52D4B88B001221A7000F06BFB01F0F0
:10074000F1FF00231A4642F6700101F0F3FF01F0B9
:10075000E9FF00231A46132101F0F4FF234B04ADF7
:10076000049302AE224C95E8030086E8030004F1EE
:100770000C0292E8030085E8030096E8030082E893
:1007800003001C4A1C4B6261A269236007921B4A4A
:1007900000232371A3600693A26101930093184A7A
:1007A00023464FF4FA6104F1080000F0D3FB284619
:1007B000FFF706FD1349144A204602F0BDF813481E
:1007C00000F094F9124800F001FA4FF4B963009375
:1007D000104803A3D3E9002300F088FA08B070BDE5
:1007E0000000000000C8A940C0010020190108084D
:1007F00020010020BB0008082C5D0808B70008088D
:1008000055010808F1010808B0000020EC000020A4
:10081000E00000204001002003685A68986812F048
:10082000010F4FEA620218BF81581B68104418BFBD
:10083000CB58184710B50446007C01F0D9FFA061E1
:1008400010BD10B50446407C01F0D2FFE06110BD40
:1008500010B50446807C01F0CBFF206210BD10B5BE
:100860000446C07C01F0C4FF606210BD022A38B5A6
:10087000044605D0032A0FD0012A11D10B6809E0E4
:100880000C200D68FFF70BFC034618B195E8070034
:1008900083E80700236003E00C21006802F051F8B0
:1008A000002038BD70B50E4605468CB00024337864
:1008B0009C4222DA124904A8013400F038FE0A22D0
:1008C0002146684600F083FE694604A800F0BFFE9A
:1008D000014608A800F04DFE294600230222089890
:1008E00000F09CFC08A800F0DBFD684600F0D8FD95
:1008F00004A800F0D5FD0435D9E70CB070BD00BFE9
:100900004E5E08080B78063350F82300C0B27047DB
:1009100010B50446FFF78EFF2046FFF792FF2046F2
:10092000FFF796FF2046BDE81040FFF798BF042070
:100930007047000070B50C4616781946237896B0BB
:10094000054610F82330002E49D0002B44D10AA8C8
:1009500000F00FFE474906A800F0E9FD06A90AA825
:1009600000F075FE064621780A2201310EA800F03B
:100970002EFE0EA9304600F06AFE06463E4912A839
:1009800000F0D5FD12A9304600F061FE014602A834
:1009900000F0EFFD12A800F083FD0EA800F080FD2E
:1009A00006A800F07DFD0AA800F07AFD2378012159
:1009B0002B44187D01F003FF304B029A1B7830491D
:1009C0008DF8003012A83C2301F0BEF913A8FFF700
:1009D0007FFC02A800F064FD2378012245E0002B93
:1009E00041D012A800F0C5FD26490AA800F09FFDDD
:1009F00021780A22013106A800F0E9FD06A90AA81B
:100A000000F025FE204900F02EFE01460EA800F061
:100A1000B0FD0EA912A800F01AFE014602A800F0CF
:100A2000A8FD0EA800F03CFD06A800F039FD0AA8BC
:100A300000F036FD12A800F033FD237831462B4438
:100A4000187D01F0BCFE0D4B029A1B780C498DF805
:100A5000003012A83C2301F077F913A8FFF738FC07
:100A600002A800F01DFD2378002245F8232016B0CF
:100A700070BD00BF385F0808555E080818020020E6
:100A80005F5E08086C5E0808745E0808F0B589B0FF
:100A9000044602A880E806001D460C2000230F46ED
:100AA000039E0693FFF7FBFA10B10760466085606E
:100AB0000C4B049007930C4B204606939DF8403056
:100AC0009DF83820009304A99DF93C3001F016FCF4
:100AD000069B04461BB104A90322084698472046FA
:100AE00009B0F0BD190808086D08080870B504467B
:100AF0008CB01022002103F0CAFA2B4B102253F8BD
:100B0000040B00212061186804F11305606104F1F1
:100B1000180003F0BCFA04F11706002115F8030CC5
:100B200001F03CFE15F8010F012101F037FE002114
:100B3000287801F044FEB542EFD100254FF0FF3692
:100B40008DE86000194B05950493029504AA23468D
:100B500006CA207CFFF79AFF8DE86000144B0795CA
:100B60000693029506AA234606CA607CFFF78EFF0D
:100B70008DE860000F4B09950893029508AA23465B
:100B800006CAA07CFFF782FF8DE860000A4B0B9538
:100B90000A9302950CAAE07C234612E90600FFF7AF
:100BA00075FF20460CB070BD465E08083508080881
:100BB00043080808510808085F080808024B01228A
:100BC0001A7000F027B900BF18020020034670B564
:100BD000044605460B49C82223F8022B0A6800F197
:100BE0000806C0F802204A685A6035F8020F012151
:100BF00001F0D4FD0021288801F0E1FDB542F4D1D7
:100C0000204670BD7C5E080870B5144690B00E4654
:100C100005462C4904A800F08AFC214604A800F0EF
:100C200016FD294900F01FFD04460A22317808A864
:100C300000F0BBFC08A9204600F009FD234900F0A4
:100C400012FD01460CA800F094FC214B0C9A1B7875
:100C500020498DF8003002A83C2301F075F8039C70
:100C60007CB16368013B63605BB9236820469B6885
:100C70009847A368013BA3601BB923682046DB6843
:100C800098470CA800F00CFC08A800F009FC04A888
:100C900000F006FC3378012135F8130001F08FFDD8
:100CA00000F028F9044600F025F92B88001B984233
:100CB000F9D33378002135F8130001F080FD10B02E
:100CC00070BD00BF845E08086C5E08088C5E080872
:100CD000190200205F5E080804207047024B0122C1
:100CE0001A7000F097B800BF1902002030B5044612
:100CF000054607490868496803C5C4E90223039B00
:100D00000022A362034B2046C4E9062330BD00BF86
:100D1000985E08080000A0402DE9F74F04460D46F4
:100D20004FF0000A00260027D4F828B0DA452BD26D
:100D3000605D01F070FD02F0B5F9D4E90689424624
:100D40004B46CDE9000102F06FF80022234B02F080
:100D50001FFA42464B4602F069F802460B46DDE9AF
:100D60000001C4E9062302F05FF802460B4602F0D8
:100D70000FFA02460B463046394602F057F80AF1A0
:100D8000010A06460F46CFE7D4E902010022144BC0
:100D900002F028FB0022134B02F0FAF9D4E91C23DD
:100DA00002F0F6F980465846894602F07BF9024681
:100DB0000B463046394602F015FB01F00FFF0246A4
:100DC0000B464046494602F0E3F9063504EBC504FC
:100DD000C4E9000103B0BDE8F08F00BF0000503F40
:100DE00000408F400000303F072938B504460D46CB
:100DF00008D8C0E91C2304EBC504FFF78DFFD4E934
:100E00000C0138BD0020014938BD00BF0000F0BF13
:100E100000F000B808B5024B1B681B68019308BDC1
:100E2000B001040808B5024B1B685B68019308BD5C
:100E3000B001040808B5024B1B689B68019308BD0C
:100E4000B001040808B5024B1B68DB68019308BDBC
:100E5000B001040808B5024B1B681B69019308BD6B
:100E6000B001040808B5024B1B685B69019308BD1B
:100E7000B001040808B5024B1B689B69019308BDCB
:100E8000B001040808B5024B1B68DB69019308BD7B
:100E9000B001040808B5024B1B681B6A019308BD2A
:100EA000B001040808B5024B1B685B6A019308BDDA
:100EB000B001040808B5024B1B681B6B019308BD09
:100EC000B001040808B5024B1B68DB69019308BD3B
:100ED000B401040808B5024B1B681B6A019308BDE6
:100EE000B401040808B5024B1B685B68019308BD98
:100EF0009C01040808B5024B1B685B69019308BD9F
:100F00009C01040808B5024B1B689B6A019308BD4D
:100F10009C01040808B5024B1B685B6C019308BD7B
:100F20009C01040808B5024B1B689B6C019308BD2B
:100F30009C01040808B5024B1B68DB68019308BDDF
:100F4000D001040808B5024B1B68DB69019308BD9A
:100F5000D001040808B5024B1B681B6A019308BD49
:100F6000D001040808B5024B1B685B6A019308BDF9
:100F7000D001040808B5024B1B689B6A019308BDA9
:100F8000D001040808B5024B1B68DB6A019308BD59
:100F9000D001040808B5024B1B681B6B019308BD08
:100FA000D001040808B5024B1B681B6F019308BDF4
:100FB000D001040808B5024B1B689B69019308BD6A
:100FC000C401040808B5024B1B685B6A019308BDA5
:100FD000C401040808B5024B1B689B6A019308BD55
:100FE000C401040808B5024B1B68DB6A019308BD05
:100FF000C401040808B5024B1B681B6B019308BDB4
:10100000C401040808B5024B1B685B6B019308BD63
:10101000C401040808B5024B1B689B6B019308BD13
:10102000C401040808B5024B1B681B6C019308BD82
:10103000C401040808B5024B1B681B6A019308BD74
:10104000AC01040808B5024B1B685B6A019308BD3C
:10105000AC01040808B5024B1B689B6A019308BDEC
:10106000AC01040808B5024B1B68DB6A019308BD9C
:10107000AC01040808B5024B1B681B6B019308BD4B
:10108000AC01040808B5024B1B685B6B019308BDFB
:10109000AC01040808B5024B1B681B6C019308BD2A
:1010A000AC01040808B5024B1B68DB6B019308BD5B
:1010B0002000060808B5024B1B685B6C019308BD55
:1010C0002000060808B5024B1B681B68019308BD89
:1010D0001C00060808B5024B1B681B69019308BD7C
:1010E0001C00060808B5024B1B685B69019308BD2C
:1010F0001C00060808B5024B1B689B69019308BDDC
:101100001C00060808B5024B1B68DB69019308BD8B
:101110001C00060808B5024B1B681B6A019308BD3A
:101120001C00060808B5024B1B685B68019308BDEC
:10113000A401040808B5024B1B68DB6C019308BDD1
:10114000A401040808B5024B1B685B6D019308BD40
:10115000A401040808B5034B1B68D3F89030019331
:1011600008BD0000A401040808B5034B1B68D3F8B0
:101170009C30019308BD0000A401040808B5024B8F
:101180001B685B68019308BDC801040808B5024BE1
:101190001B689B68019308BDC801040808B5024B91
:1011A0001B68DB68019308BDC801040808B5024B41
:1011B0001B681B69019308BDC801040808B5024BF0
:1011C0001B685B69019308BDC801040808B5024BA0
:1011D0001B689B69019308BDC801040808B5024B50
:1011E0001B68DB69019308BDC801040808B5024B00
:1011F0001B681B6A019308BDC801040808B5024BAF
:101200001B681B6B019308BDC801040808B5024B9D
:101210001B685B6B019308BDC801040808B5024B4D
:101220001B681B68019308BDCC01040808B5024B7C
:101230001B685B68019308BDCC01040808B5024B2C
:101240001B685B69019308BDCC01040808B5024B1B
:101250001B681B6A019308BDCC01040808B5024B4A
:101260001B685B6A019308BDCC01040808B5024BFA
:101270001B68DB6B019308BDCC01040808B5024B69
:101280001B681B68019308BDA001040808B5024B48
:101290001B685B68019308BDA001040808B5024BF8
:1012A0001B689B68019308BDA001040808B5024BA8
:1012B0001B68DB6A019308BDA001040808B5024B56
:1012C0001B681B6B019308BDA001040808B5024B05
:1012D0001B68DB6B019308BDA0010408704710B5C3
:1012E0000446102101F02DFB204610BD70B50446C8
:1012F0000E46074B0025036040F80C5FFFF74AFEDF
:1013000030462671FFF7DEFDA560204670BD00BFA8
:10131000A85E08080079FFF7DDBD00004FF6FF72F8
:10132000034B0020187058809A80FFF7FBBE00BF67
:101330001A02002010B5044602F0FDFE0138231801
:101340002046984206D20278197800F8011B03F86B
:101350000129F6E710BD70B50C46911E222920D850
:101360002546294610B9234430220EE0B0FBF2F6A0
:1013700002FB1600C1B2092805F8011B94BF3031E9
:10138000573105F8011C3046EBE7994202D201F8CB
:10139000012BFAE7002320460B70FFF7CBFF204616
:1013A00070BD002070BD38B5031E0C4615460BDA23
:1013B000B3F1004F4FF02D0214BF584218460123DD
:1013C0000A702A46194400E00123FFF7C4FF2046B3
:1013D00038BD08B50123FFF7BEFF08BD2DE9F14F69
:1013E00080460D4617461E460022002340462946E9
:1013F00002F040F920B12D23337005F1004501368C
:10140000002301240A22D9B28F4202D95443013366
:10141000F9E7204601F056FE42462B4601F0B8FEA1
:1014200082468B4602F072FC8046894601F07AFEC5
:1014300002460B465046594601F0F6FC0022174B77
:1014400002F02CF918B118F1010849F10009E5176B
:1014500022462B464046494602F040FC01230A2220
:101460003146FFF778FFAFB1304602F064FE2E231D
:1014700033540130064422462B464046494602F08A
:101480002DFC3B46104631460A2201B0BDE8F04F24
:10149000FFF761BF01B0BDE8F08F00BF0000E03F83
:1014A00010B504460068FFF7F1FE204610BD10B5E8
:1014B0000446006808B1FFF7E9FE00232360A3603B
:1014C000636010BD38B504460D4600680131FFF772
:1014D000E5FE10B184E82100012038BD10B5036895
:1014E000044613B143688B4207D22046FFF7EAFF58
:1014F00020B1A3680BB922681370012010BD70B52C
:101500000E46114604461546FFF7E8FF18B9204677
:10151000FFF7CDFF09E02A463146A560206802F0BA
:10152000ABFD2268A3680021D154204670BD38B5B8
:101530000023044603604360836003730D4639B1A2
:10154000084602F0F8FD294602462046FFF7D7FF7D
:10155000204638BD884210B50B46044607D00968BE
:1015600019B19A68FFF7CBFF01E0FFF7A0FF204613
:1015700010BD10B50446002303604360836003730D
:10158000FFF7E8FF204610BD38B505460C4641B1CF
:10159000084602F0D0FD214602462846FFF7AFFF7D
:1015A00001E0FFF784FF284638BD1FB5044600233D
:1015B00023606360A3602373084601A9FFF709FF56
:1015C00001A92046FFF7E0FF204604B010BD10B58A
:1015D000044600238AB023606360A3602373084637
:1015E00001A9FFF7E0FE01A92046FFF7CDFF204645
:1015F0000AB010BD10B504468AB019460023104643
:1016000023606360A36023739DF8302001ABFFF774
:10161000E5FE01A92046FFF7B7FF20460AB010BD3E
:1016200070B504460E4609B9002070BD6AB18368E2
:10163000D5182946FFF752FF0028F5D02068A36887
:101640003146184402F054FDA560012070BD10B56C
:101650008A6809680446FFF7E3FF10B92046FFF7E0
:1016600026FF204610BD38B504460D4641B1084658
:1016700002F061FD294602462046FFF7D1FF10B96E
:101680002046FFF714FF204638BD006808B102F07D
:10169000DCBC704708B5006820B102F0D3FC02F052
:1016A0006FF808BD002008BDF8B506460D468F1836
:1016B0000024BD420CD0336815F8011B9B683046EE
:1016C0009847002801DB0444F3E7002C08BF0446D8
:1016D0002046F8BD70B505460C46084649B102F0F3
:1016E0002AFD2B68024621462846BDE87040DB688B
:1016F000184770BD03689B681847012A98BF0A22E3
:1017000030B50B468BB000218DF824100DF1230469
:10171000B3FBF2F505FB1233DBB2092B94BF303378
:101720003733DBB2214604F801392B46002DEFD1C7
:10173000FFF7D0FF0BB030BD10B422B90368C9B2B7
:101740009B6810BC1847D2B210BCFFF7D6BFFFF79A
:10175000F3BF2DE9F04107460E4615462AB9BDE80C
:10176000F0410368C9B29B6818470A2A02D10029D0
:1017700001DA04E0D2B2BDE8F041FFF7BEBF2D218F
:10178000FFF7B8FF2A46044671423846FFF7B5FF17
:101790002044BDE8F081FFF7DCBF0B68036013B1A4
:1017A0005A6801325A607047014A024B1A6070470A
:1017B000265F080820020020024B1A68024B1A60BC
:1017C000704700BF080000202402002010B5044626
:1017D000FEF7F6FC204610BD13B50B46044603C8C1
:1017E0008DE8030093E8030084E803009DE803000C
:1017F00083E8030002B010BD034800238360034A5E
:10180000034901F099B800BF28020020B000002071
:10181000CD1708087047007D7047000008B5037DAC
:101820001BB18069B0F1004F01D1002008BD02F06A
:10183000B1F8024902F0B6F908BD00BF0000C84285
:1018400008B5037D1BB1006AB0F1004F01D1002043
:1018500008BD02F09FF8024902F0A4F908BD00BFDC
:101860000000C84270B50D4606460A228168284627
:10187000FFF791FF2C2104462846FFF73BFF0A2281
:101880000444F1682846FFF786FF204470BDA0F1AC
:101890000400FFF7E7BF10B50446282101F051F816
:1018A000204610BD08B5037D5BB1406A002808DB07
:1018B00002F070F8044902F075F9044902F0BEF82C
:1018C00008BD034808BD00BF00FF7F470000C842B5
:1018D000000080BF08B5037D5BB1C069002808DB4C
:1018E00002F058F8044902F05DF9044902F0A6F844
:1018F00008BD034808BD00BF00FF7F470000C84285
:10190000000080BF30B50D4600F110040FCD0FC4AC
:1019100095E8030084E80300012030BD08B5184BAA
:1019200033B100F04FFC03681B69984700281EDCA8
:10193000144B33B100F016FE03681B69984700286A
:1019400018DC114B0BB1AFF30080104B0BB1AFF3B0
:1019500000800F4B0BB1AFF300800E4B7BB100F05A
:101960006DFC03681B699847002806DC08BDAFF3CF
:101970000080DDE7AFF30080E3E7AFF3008008BD50
:101980000000000000000000000000000000000057
:10199000000000000000000008B5FFF7BFFFFFF7E0
:1019A000A9FA014B186008BDC00700200248034A8D
:1019B0000349121A02F060BB00400240044002409A
:1019C0003864080807B5002300931A466FF07701C2
:1019D000FFF7CAFB03B05DF804FB000007B54388BE
:1019E0000A2B08D0502B09D1094B1B683BB103B01F
:1019F0005DF804EB1847FFF7E5FF06E000230093CE
:101A00001A466FF07701FFF7AFFB03B05DF804FBF8
:101A10003802002038B5104C104D2368AB42104BF3
:101A20000CBF012200221A7002D0FFF7BFFF256011
:101A3000FFF758FA044602F033FB0A4B13B1204675
:101A4000AFF3008000210748FFF710FCBDE83840E5
:101A500000210548FFF77EBB004002401E1C279A6C
:101A60003C02002000000000DD190808704700203B
:101A7000704710B50446102100F063FF204610BDEA
:101A800008B508B1FFF7F5FF08BD002202604FF668
:101A90009C72828010B5B1F9044084808A8002680B
:101AA0000C6804600A6010BD10B504460068FFF7BA
:101AB000EDFB204610BD38B5C468F4B12378022B85
:101AC00003D104F10C00FFF7EFFF656835B128463C
:101AD000FEF776FB1021284600F033FFA56835B1EC
:101AE0002846FEF76DFB1021284600F02AFF20460D
:101AF000BDE83840142100F024BF38BD10B588B0CF
:101B000004466846FFF713FD694604A8FFF731FD58
:101B100004A8A047044604A8FFF7C2FC6846FFF7E4
:101B2000BFFC204608B010BDF0B507460E4615466E
:101B300085B0102422460021684602F0A8FA00224F
:101B400069461046ADF80040029703960195FFF7ED
:101B50006DFB05B0F0BD13B5044691E80500002308
:101B60004B600B602060626001A801930093FEF758
:101B7000AFFB204602B010BDF7B50C4606460F4637
:101B800054F8043B02AD45F8083D214601A8FFF793
:101B900004FE29463046FFF7DEFF01A8FEF798FB5A
:101BA0002046FEF795FB3846082100F0CAFE304675
:101BB00003B0F0BD38B500230446036010200D4685
:101BC000FEF76DFA28B1012343608360024BC560C4
:101BD00003602060204638BDF85F0808826810B5B1
:101BE0000AB900F0B0FEC368BDE81040184708B558
:101BF000006800F11001FFF7F1FF08BD826810B521
:101C00000AB900F0A0FEC368BDE81040184708B547
:101C1000006800F11001FFF7F1FF08BD38B500239F
:101C200083608B6804460D462BB102229847EB680F
:101C3000E360AB68A360204638BD0000F0B589B012
:101C400004686846FFF721FF4FF0020200238DF879
:101C50000830D4E84F3F002B03D1C4E8412F0029BE
:101C6000F7D102D08DF8083063E014F10C0503D0F1
:101C700069462846FFF709FFBFF35F8F01236370B2
:101C8000BFF35F8F04F10803002053E8006F43E8BF
:101C90000002002AF9D1BFF35F8F002E49D0FFF771
:101CA00049FA20B129463046FFF798FF3AE031461D
:101CB00002A8FFF7B3FFE068B4F9105008B102F0D2
:101CC0001FFA06901020ADF81C50FEF7E8F9054603
:101CD000E8B1002787601820FEF7E1F9044688B1D3
:101CE0000146876002A8FFF777FD049BA268A36006
:101CF000059B0492E26806A9E36004F110000592D6
:101D0000FFF7C3FE0D4B2C60EB600D4BAB6006A8DC
:101D1000FFF7CAFE02A8FEF753FA00222946094837
:101D2000FFF710FA3046FEF74BFA1021304600F06C
:101D300008FE6846FFF7B8FE09B0F0BDEF1B0808C3
:101D4000651E0808B12508082DE9F04F8BB006463E
:101D50000F46904699469DF850A0FFF76FFA07ADE1
:101D6000834630BB4FF62E73059005A92846ADF883
:101D70001830FFF78AFE1420FEF791F9044658B197
:101D80000223037001234370C0F804B0C0F808B008
:101D900029460C30FFF779FE3046214640F8044BC7
:101DA000FFF708FF2846FFF77FFE05A8FFF77CFE38
:101DB00052E000240C2314206C60AC600793FEF703
:101DC0006EF9014618B1047044704460846004A840
:101DD0000391FFF7EFFE224B08200893FEF75FF90F
:101DE000044628B1039B04A940F8043BFFF7D5FC47
:101DF00000955FFA8AF34A46414638460994FFF750
:101E000025FA20B9039B5B7803F0FF0283B1039BA3
:101E100004A906A80593FFF7C0FC05A93046FFF703
:101E20009AFE06A8FEF754FA04A8FEF751FA13E04A
:101E30004FF69C7305A903A80592ADF81830FFF77B
:101E4000FDFE05A8FFF730FE05A80999FFF794FEEF
:101E500006A8FEF73DFADAE730460BB0BDE8F08F92
:101E6000D51F0808022AF8B5044606D0032A17D061
:101E7000012A22D10B6803601FE018200E68FEF7CC
:101E80000EF9054650B13146FFF7C8FE3069B6F984
:101E9000147008B102F034F92861AF8225600CE0BB
:101EA000046854B104F11000FFF7FEFD2046FEF770
:101EB00087F91821204600F044FD0020F8BD38B510
:101EC000002383608B6804460D462BB1022298479D
:101ED000EB68E360AB68A360204638BD022A70B5AA
:101EE000044606D0032A11D0012A18D10B680360DA
:101EF00015E014200E68FEF7D2F8054620B13146F1
:101F0000FFF7DDFF337C2B74256008E0046834B1F3
:101F10002046FEF755F91421204600F012FD00205E
:101F200070BD0000F0B50C46BFF35F8F87B0002393
:101F300050E8006F40E80032002AF9D1BFF35F8F0C
:101F4000002E3FD01846FFF7F5F8074620B121468E
:101F50003046FFF753FE2EE0314601A8FFF7AFFFF2
:101F6000237810208DF81430FEF799F80546D0B18B
:101F700087601420FEF793F8044678B18760014625
:101F800001A8FFF729FC039BA268A360049B0392AE
:101F9000E268E3609DF81430049223740A4B2C60CD
:101FA000EB600A4BAB6001A8FEF70AF90022294654
:101FB0000748FFF7C7F83046FEF702F91021304610
:101FC00000F0BFFC07B0F0BD0F1C0808DD1E0808BC
:101FD000B125080830B5044685B00D46684611465F
:101FE000FFF7CAFD7CB124B228460DB102F088F893
:101FF000029002A96846ADF80C40FFF71FFE02A848
:10200000FFF752FD1DE04FF0010200988DF80840E7
:10201000D0E84F3FA34203D1C0E8412F0029F7D1B8
:1020200002D08DF808300CE010F10C014FF00103E4
:1020300018BF0373BFF35F8F043000F8033CFFF752
:1020400071FF01A8FEF744F905B030BD704710B527
:102050000446082100F075FC204610BDF8B50F4677
:1020600000F10806051D002416F8011D0A22384655
:10207000FFF76DFBAE42044407D0002CF4D02E21B4
:102080003846FFF737FB0444EEE72046F8BD000072
:10209000024A026000224260704700BF14600808D4
:1020A000024A02600A684260704700BF1460080874
:1020B000014A4160026070471460080810B59DF83D
:1020C000084044EA032343EA024242EA01614160D4
:1020D00010BD000037B5044D05609DF818500095FF
:1020E000FFF7ECFF03B030BD14600808417470477F
:1020F000704708B50021007CFEF7FCFF30EA2000A5
:1021000028BF4FF0FF3008BD08B50121007CFEF765
:10211000F1FF30EA200028BF4FF0FF3008BD08B5BE
:10212000007CFEF7DFFF20EAE07008BD08B5007C08
:10213000FEF7D0FF20EAE07008BD007CFEF7EABFA2
:1021400010B50446142100F0FCFB204610BD38B544
:102150000446007C0D46FEF7C5FF002801DC607CCC
:1021600028B12946207CFEF7CDFF20EAE07038BD7B
:1021700010B50446002363604FF47A73A360054BE7
:10218000084623600123217463741146FEF79AFF09
:10219000204610BD2860080810B50446142200210E
:1021A00001F075FF054B20466360054BE36040F28C
:1021B000011323818123238210BD00BFC5020020AB
:1021C0004402002030B50E4D87B001A8FFF7E4FFB0
:1021D000296811F0010410D12846FDF764FF60B1B1
:1021E00001AA21460748FFF7C3FF2846FDF760FF15
:1021F000054A0649034800F09FFB024807B030BD7E
:1022000040020020C8030020B0000020F120080890
:1022100010B504461422002101F039FF054B204679
:102220006360054BE36040F2011323818123238225
:1022300010BD00BF78040020E003002010B50E4C54
:1022400086B001A8FFF7E4FF2368DB0710D420461F
:10225000FDF729FF60B101AA01210848FFF788FFB7
:102260002046FDF725FF064A0649044800F064FBB6
:10227000024806B010BD00BFDC030020640400204B
:10228000B0000020F1200808826810B50AB900F0FB
:102290005AFBC368BDE810401847FEF703BEFEF7BF
:1022A000F9BD38B5002383608B6804460D462BB119
:1022B00002229847EB68E360AB68A360204638BD14
:1022C000F8B50D4B064653F820500F461C4635B165
:1022D0002846FDF775FF1021284600F032FB10203C
:1022E000FDF7DDFE054610B13946FFF7DAFF44F889
:1022F00026502846F8BD00BF7C050020F0B50C46EE
:10230000054685B017461E46FEF7BCFD2146284609
:10231000FFF7D6FF0446D0B1002104238E4203917B
:102320008DF80C30B4BF0B469DF828300246A4BF90
:102330008DF80E3003AB009307493B462846A8BFF3
:102340008DF80D60FEF796FD08B1002002E0201C1C
:1023500018BF012005B0F0BD8922080800221146EF
:102360004068FEF723BF2DE9FF41002604AC054677
:1023700010468846174644F8046D01F0DCFE0096CE
:1023800081B2D8F8043022463846FEF78BFE20B1E1
:1023900031462846FFF78CFE03E021462846FFF72A
:1023A0007FFE284604B0BDE8F08100221146406857
:1023B000FEF71CBF002211464068FEF727BF00222F
:1023C0004068FEF71BBF002281F001014068FEF764
:1023D00005BF00231A4619464068FEF7F7BE0023E2
:1023E0001A4619464068FEF7E9BE002211464068C9
:1023F000FEF7CCBE002202214068FEF7CFBE0023CC
:102400001A464068FEF7BABEF0B50F461A4B0025D3
:1024100003601826283389B043608560C560324662
:1024200029460446103001F032FE2A4629467868D3
:10243000FEF7BCFE08B9A0601BE02946324602A8A0
:102440000095019501F023FE02A96846ADF80860E9
:10245000FEF730FE10B10123A3600AE0009B019A51
:10246000A360E2600BB90223A36002A92046FFF734
:1024700049FA204609B0F0BDC45F080838B5084CD9
:1024800028252A460021204601F001FE4FF0FF33A7
:102490006360044B04225A60034A25801A6038BDE9
:1024A0004006002038060020586008087047417434
:1024B000704708B5007CFEF7B5FD20EAE07008BD66
:1024C00008B5007CFEF786FD20EAE07008BD08B57F
:1024D000007CFEF78FFD30EA200028BF4FF0FF3070
:1024E00008BD08B5007CFEF77DFD30EA200028BF5E
:1024F0004FF0FF3008BD007CFEF784BD10B50446E8
:10250000142100F01EFA204610BD70B5457C04462B
:102510000E4625B9007CFEF785FD002805DD314615
:10252000207CBDE87040FEF74DBD284670BD000020
:1025300010B5044608461146002262604FF47A72D4
:10254000A260054A20742260012262741A46FEF7D6
:1025500031FD204610BD00BF8C600808007CFEF7EE
:1025600059BD000038B50C4D296811F0010411D196
:102570002846FDF798FD68B1084A2146084B0948EE
:10258000FFF7D6FF2846FDF793FD074A07490548A0
:1025900000F0D2F9034838BD0007002004070020EE
:1025A0007C06002068060020B0000020AD2408084A
:1025B00010B5836804460BB900F0C5F9C3689847A5
:1025C000A3681BB103222146204698472046BDE858
:1025D0001040102100F0B5B97047F8B50646154611
:1025E0000C468F18BC4206D0336814F8011B9B6858
:1025F00030469847F6E72846F8BD0022007CFEF7F3
:1026000019BD0021007CFEF71DBD0021007CFEF7F6
:1026100021BD0021007CFEF725BD0021007CFEF7D6
:1026200029BD10B50446142100F08BF9204610BDD9
:1026300010B5044608464FF47A73A360044B00219A
:10264000207461602360FEF725FD204610BD00BFA9
:10265000BC6008080021007CFEF714BD00231A4668
:102660004068FEF78BBD002202214068FEF796BD50
:10267000002211464068FEF789BD002211464068DD
:10268000FEF794BD00231A4619464068FEF796BD32
:1026900000231A4619464068FEF798BD002281F0D3
:1026A00001014068FEF79ABD00224068FEF7A6BD12
:1026B000002211464068FEF7A9BD0022114640687D
:1026C000FEF794BDF0B5174687B0054604A8FFF79E
:1026D000DFFC002606AC384644F80C6D01F02BFDFB
:1026E0000A4B009681B25B6822463846FEF7DAFC58
:1026F00020B131462846FFF7DBFC03E0214628469F
:10270000FFF7CEFC284607B0F0BD00BF380600201A
:10271000024B034A1A6000225A6070478807002063
:10272000E460080808B5024B1B681B68019308BDEC
:102730009C01020808B5024B1B685B68019308BD49
:102740009C01020808B5024B1B689B68019308BDF9
:102750009C01020810B504460F48FEF7DBFD28B1C6
:10276000A4F10D03022B01D8002010BD00F0C4F825
:10277000FFF770FF08B1012CF6D9FFF7F3FEFFF762
:10278000EDFE18B1A4F11203012BEDD92E2C8CBF54
:102790000020012010BD00BF900700202E2838B572
:1027A00004460D460AD8FF2908D0FFF7D3FF28B109
:1027B00029462046BDE83840FEF73CBB38BD38B559
:1027C00004460D46FEF73EFBFF2810D0062804D82D
:1027D0004D2323FA00F0C30709D42046FFF7BAFFC0
:1027E00028B129462046BDE83840FEF733BB38BD46
:1027F00010B50446FEF726FB0438C0B2012808D9FC
:102800002046FFF7A7FF20B12046BDE81040FEF7A5
:1028100029BB002010BD10B5044609289CBF0A340E
:10282000A4B22046FFF796FF50B103212046FEF7E1
:10283000F9FA032804D12046BDE81040FEF73ABB60
:10284000002010BD70B5114E114D124C00213046C4
:10285000FEF74CFD3046104E2A46214600F06CF83B
:1028600001213046FEF742FD30460C4E2A462146F5
:1028700000F062F802213046FEF738FD2A46214674
:102880003046BDE8704000F057B800BF9007002008
:10289000B0000020DD120808A0070020B0070020CB
:1028A00010B5074C2368DB0708D42046FDF7FBFB77
:1028B00020B1FEF727FB2046FDF7FAFB014810BDCB
:1028C000C4070020C807002013B5084C00231A468F
:1028D000194600932046FFF7FDFB2046044A0549B0
:1028E00002B0BDE8104000F027B800BFCC070020C0
:1028F000B00000204D20080838B50B4D296811F0B4
:1029000001040FD12846FDF7CEFB58B121460748F8
:10291000FFF78EFE2846FDF7CBFB054A0549034825
:1029200000F00AF8014838BDD4070020D80700207D
:10293000B0000020D92508080B460146184601F0D2
:1029400089BBFDF7AEBB08B5FEF7B0FC184B1A68A3
:10295000D1075CBF01221A60164B1A68D2075CBF10
:1029600001221A60144B1A68D0075CBF01221A605A
:10297000124B1A68D1075CBF01221A60104B1A680B
:10298000D2075CBF01221A600E4B1A68D0075CBFE9
:1029900001221A600C4B1A68D1075CBF01221A6031
:1029A0000A4B1A68D2075CBF01221A60704700BF49
:1029B000080800200408002000080020FC07002070
:1029C000F8070020F4070020F0070020EC070020A3
:1029D000244B1A68D0075CBF01221A60224B1A6888
:1029E000D1075CBF01221A60204B1A68D2075CBF76
:1029F00001221A601E4B1A68D0075CBF01221A60C0
:102A00001C4B1A68D1075CBF01221A601A4B1A6866
:102A1000D2075CBF01221A60184B1A68D0075CBF4E
:102A200001221A60164B1A68D1075CBF01221A6096
:102A3000144B1A68D2075CBF01221A60124B1A6845
:102A4000D0075CBF01221A60104B1A68D1075CBF27
:102A500001221A600E4B1A68D2075CBF01221A606D
:102A6000704700BF380800203408002030080020DC
:102A70002C0800202808002024080020200800201E
:102A80001C0800201808002014080020100800204E
:102A90000C080020244B1A68D0075CBF01221A6082
:102AA000224B1A68D1075CBF01221A60204B1A68BA
:102AB000D2075CBF01221A601E4B1A68D0075CBFA8
:102AC00001221A601C4B1A68D1075CBF01221A60F0
:102AD0001A4B1A68D2075CBF01221A60184B1A6899
:102AE000D0075CBF01221A60164B1A68D1075CBF81
:102AF00001221A60144B1A68D2075CBF01221A60C7
:102B0000124B1A68D0075CBF01221A60104B1A687A
:102B1000D1075CBF01221A600E4B1A68D2075CBF56
:102B200001221A60704700BF680800206408002076
:102B3000600800205C08002058080020540800208D
:102B4000500800204C0800204808002044080020BD
:102B5000400800203C080020184B1A68D1075CBFD1
:102B600001221A60164B1A68D2075CBF01221A6054
:102B7000144B1A68D0075CBF01221A60124B1A6806
:102B8000D1075CBF01221A60104B1A68D2075CBFE4
:102B900001221A600E4B1A68D0075CBF01221A602E
:102BA0000C4B1A68D1075CBF01221A600A4B1A68E5
:102BB000D2075CBF01221A60704700BF880800205E
:102BC00084080020800800207C080020780800206D
:102BD00074080020700800206C0800202DE9F04FD8
:102BE0008BB004460D4600F055F8284B064693F985
:102BF00000A00F46BAF1FF3F12D022462B462046D6
:102C0000294600F05FFD834650B94FF000084FF0B1
:102C100000092046294642464B4600F02BFD20B9CC
:102C2000304639460BB0BDE8F08F194A0123CDF884
:102C300020B0CDE90445CDE9024501920093BAF1F7
:102C4000000F15D042464B464046494600F0CAFBAD
:102C5000BAF1020FCDE906010CD1FEF737FB2123B3
:102C60000360089B63B9DDE906010BB0BDE8F08F96
:102C7000CDE90689684600F0D1F80028F1D1ECE7EB
:102C8000FEF724FB089B0360EDE700BF0C0000206B
:102C9000106108082DE9F0415F4E0C46B6460E4023
:102CA0007645054600F0988000290B46024674DD03
:102CB0005FEA215E7FD0AEF2FF3EC3F313031EF046
:102CC000010F43F4801363D100273E4603EBD2711A
:102CD0000B444FEA6E0E520016204FF40011741888
:102CE0009C424FEAD2754FEA420202DC1B1B661877
:102CF0000F44013805EB43034FEA5101EFD18446FD
:102D000020244FF0004109E020D003EBD275013CB4
:102D10004FEA51012B444FEA420220D09E4201EB80
:102D20000C05F1DA002D05EB010C09DBB0469542EC
:102D3000A3EB060300D9013B4646521B0844E4E7D7
:102D4000BCF1000FF2DB06F10108F0E7954217D85D
:102D5000002D05EB010C49DB98460023ECE71343FB
:102D600010D140087B1003F17F5303F50013FA07DD
:102D700003EB0E57394648BF40F00040BDE8F081F4
:102D80003346C2E7411C35D000F001031844E8E7A0
:102D90005B0003EBD273520096E721F00046064336
:102DA000ECD079BB8E46D30AAEF1150E5205002B3E
:102DB000F9D0DD0221D4002100E001465B00DC02F5
:102DC00001F10100F9D5C0F1200422FA04F42343F3
:102DD000C1EB0E0E82406EE702460B4600F0D8F9BA
:102DE0002A46234600F022F8BDE8F081BCF1000F2E
:102DF000A9DAB1E701372046B4E720244FF0FF31CC
:102E00000020E2E702460B4600F00EF802460B46B1
:102E100000F0E8FAB2E700BF0000F07F0020704742
:102E200081F0004102E000BF83F0004330B54FEA7B
:102E300041044FEA430594EA050F08BF90EA020FE8
:102E40001FBF54EA000C55EA020C7FEA645C7FEA7B
:102E5000655C00F0E2804FEA5454D4EB5555B8BF9E
:102E60006D420CDD2C4480EA020281EA030382EA0F
:102E7000000083EA010180EA020281EA0303362DA1
:102E800088BF30BD11F0004F4FEA01314FF4801C74
:102E90004CEA113102D0404261EB410113F0004F86
:102EA0004FEA03334CEA133302D0524263EB43033D
:102EB00094EA050F00F0A780A4F10104D5F1200EDB
:102EC0000DDB02FA0EFC22FA05F2801841F1000136
:102ED00003FA0EF2801843FA05F359410EE0A5F10A
:102EE00020050EF1200E012A03FA0EFC28BF4CF03B
:102EF000020C43FA05F3C01851EBE37101F00045F1
:102F000007D54FF0000EDCF1000C7EEB00006EEBFD
:102F10000101B1F5801F1BD3B1F5001F0CD3490887
:102F20005FEA30004FEA3C0C04F101044FEA4452DE
:102F300012F5800F80F09A80BCF1004F08BF5FEA65
:102F4000500C50F1000041EB045141EA050130BD45
:102F50005FEA4C0C404141EB010111F4801FA4F1E8
:102F60000104E9D191F0000F04BF01460020B1FA3D
:102F700081F308BF2033A3F10B03B3F120020CDA75
:102F80000C3208DD02F1140CC2F10C0201FA0CF053
:102F900021FA02F10CE002F11402D8BFC2F1200CB8
:102FA00001FA02F120FA0CFCDCBF41EA0C0190406E
:102FB000E41AA2BF01EB0451294330BD6FEA0404B7
:102FC0001F3C1CDA0C340EDC04F11404C4F12002A2
:102FD00020FA04F001FA02F340EA030021FA04F3B4
:102FE00045EA030130BDC4F10C04C4F1200220FA0B
:102FF00002F001FA04F340EA0300294630BD21FA49
:1030000004F0294630BD94F0000F83F4801306BF0E
:1030100081F480110134013D4EE77FEA645C18BF02
:103020007FEA655C29D094EA050F08BF90EA020F99
:1030300005D054EA000C04BF1946104630BD91EA91
:10304000030F1EBF0021002030BD5FEA545C05D194
:103050004000494128BF41F0004130BD14F58004D3
:103060003CBF01F5801130BD01F0004545F0FE4147
:1030700041F470014FF0000030BD7FEA645C1ABF7C
:10308000194610467FEA655C1CBF0B46024650EAB3
:10309000013406BF52EA033591EA030F41F40021DF
:1030A00030BD00BF90F0000F04BF0021704730B565
:1030B0004FF4806404F132044FF000054FF000013A
:1030C00050E700BF90F0000F04BF0021704730B5FB
:1030D0004FF4806404F1320410F0004548BF4042D0
:1030E0004FF000013EE700BF42004FEAE2014FEA25
:1030F00031014FEA02701FBF12F07F4393F07F4F00
:1031000081F06051704792F0000F14BF93F07F4F31
:10311000704730B54FF4607401F0004521F0004174
:1031200020E700BF50EA010208BF704730B54FF0FA
:1031300000050AE050EA010208BF704730B511F0FF
:10314000004502D5404261EB41014FF4806404F137
:1031500032045FEA915C3FF4DCAE4FF003025FEAB9
:10316000DC0C18BF03325FEADC0C18BF033202EB41
:10317000DC02C2F1200300FA03FC20FA02F001FA9B
:1031800003FE40EA0E0021FA02F11444C1E600BF3A
:1031900070B54FF0FF0C4CF4E06C1CEA11541DBFED
:1031A0001CEA135594EA0C0F95EA0C0F00F0DEF8B8
:1031B0002C4481EA030621EA4C5123EA4C5350EA9D
:1031C000013518BF52EA033541F4801143F48013EE
:1031D00038D0A0FB02CE4FF00005E1FB02E506F07F
:1031E0000042E0FB03E54FF00006E1FB03569CF0D4
:1031F000000F18BF4EF0010EA4F1FF04B6F5007FDA
:1032000064F5407404D25FEA4E0E6D4146EB06064B
:1032100042EAC62141EA55514FEAC52040EA5E50D4
:103220004FEACE2EB4F1FD0C88BFBCF5E06F1ED87E
:10323000BEF1004F08BF5FEA500E50F1000041EBB5
:10324000045170BD06F0004646EA010140EA020062
:1032500081EA0301B4EB5C04C2BFD4EB0C0541EA84
:10326000045170BD41F480114FF0000E013C00F399
:10327000AB8014F1360FDEBF002001F0004170BDBD
:10328000C4F10004203C35DA0C341BDC04F11404D6
:10329000C4F1200500FA05F320FA04F001FA05F262
:1032A00040EA020001F0004221F0004110EBD3702F
:1032B00021FA04F642EB06015EEA430E08BF20EA5B
:1032C000D37070BDC4F10C04C4F1200500FA04F3FE
:1032D00020FA05F001FA04F240EA020001F0004190
:1032E00010EBD37041F100015EEA430E08BF20EA03
:1032F000D37070BDC4F1200500FA05F24EEA020E4B
:1033000020FA04F301FA05F243EA020321FA04F079
:1033100001F0004121FA04F220EA020000EBD37030
:103320005EEA430E08BF20EAD37070BD94F0000F30
:103330000FD101F00046400041EB010111F4801F64
:1033400008BF013CF7D041EA060195F0000F18BF15
:10335000704703F00046520043EB030313F4801F51
:1033600008BF013DF7D043EA0603704794EA0C0F0B
:103370000CEA135518BF95EA0C0F0CD050EA410621
:1033800018BF52EA4306D1D181EA030101F000419E
:103390004FF0000070BD50EA410606BF10461946C6
:1033A00052EA430619D094EA0C0F02D150EA0136D2
:1033B00013D195EA0C0F05D152EA03361CBF104613
:1033C00019460AD181EA030101F0004141F0FE41B2
:1033D00041F470014FF0000070BD41F0FE4141F436
:1033E000780170BD70B54FF0FF0C4CF4E06C1CEA36
:1033F00011541DBF1CEA135594EA0C0F95EA0C0FEB
:1034000000F0A7F8A4EB050481EA030E52EA0335A5
:103410004FEA013100F088804FEA03334FF08055C6
:1034200045EA131343EA12634FEA022245EA1115F3
:1034300045EA10654FEA00260EF000419D4208BFA4
:10344000964244F1FD0404F5407402D25B084FEA51
:103450003202B61A65EB03055B084FEA32024FF4FD
:1034600080104FF4002CB6EB020E75EB030E22BF5A
:10347000B61A754640EA0C005B084FEA3202B6EB1A
:10348000020E75EB030E22BFB61A754640EA5C00C9
:103490005B084FEA3202B6EB020E75EB030E22BF59
:1034A000B61A754640EA9C005B084FEA3202B6EB5A
:1034B000020E75EB030E22BFB61A754640EADC0019
:1034C00055EA060E18D04FEA051545EA16754FEA7B
:1034D00006164FEAC30343EA52734FEAC2025FEA99
:1034E0001C1CC0D111F4801F0BD141EA00014FF028
:1034F00000004FF0004CB6E711F4801F04BF0143F9
:103500000020B4F1FD0C88BFBCF5E06F3FF6AFAE14
:10351000B5EB030C04BFB6EB020C5FEA500C50F1A4
:10352000000041EB045170BD0EF0004E4EEA113127
:1035300014EB5C04C2BFD4EB0C0541EA045170BD2E
:1035400041F480114FF0000E013C90E645EA060E72
:103550008DE60CEA135594EA0C0F08BF95EA0C0FA0
:103560003FF43BAF94EA0C0F0AD150EA01347FF4E8
:1035700034AF95EA0C0F7FF425AF104619462CE7BF
:1035800095EA0C0F06D152EA03353FF4FDAE104622
:10359000194622E750EA410618BF52EA43067FF473
:1035A000C5AE50EA41047FF40DAF52EA43057FF403
:1035B000EBAE12E74FF0FF3C06E000BF4FF0010C0E
:1035C00002E000BF4FF0010C4DF804CD4FEA410C72
:1035D0007FEA6C5C4FEA430C18BF7FEA6C5C1BD03F
:1035E00001B050EA410C0CBF52EA430C91EA030FC0
:1035F00002BF90EA020F0020704710F1000F91EA1D
:10360000030F58BF994208BF90422CBFD8176FEAEA
:10361000E37040F0010070474FEA410C7FEA6C5CB8
:1036200002D150EA013C07D14FEA430C7FEA6C5CBF
:10363000D6D152EA033CD3D05DF8040B704700BFEB
:103640008446104662468C461946634600E000BF39
:1036500001B5FFF7B7FF002848BF10F1000F01BD0B
:103660004DF808EDFFF7F4FF0CBF012000205DF8D6
:1036700008FB00BF4DF808EDFFF7EAFF34BF01205B
:1036800000205DF808FB00BF4DF808EDFFF7E0FFF4
:1036900094BF012000205DF808FB00BF4DF808ED45
:1036A000FFF7CEFF94BF012000205DF808FB00BFAC
:1036B0004DF808EDFFF7C4FF34BF012000205DF88E
:1036C00008FB00BF4FEA410C7FEA6C5C02D150EA74
:1036D000013C0AD14FEA430C7FEA6C5C02D152EA0A
:1036E000033C02D14FF0000070474FF001007047DB
:1036F0004FEA410212F5001215D211D56FF478731A
:10370000B3EB625212D94FEAC12343F0004343EABC
:10371000505311F0004F23FA02F018BF4042704797
:103720004FF00000704750EA013005D111F0004021
:1037300008BF6FF0004070474FF00000704700BFB7
:103740004A0011D212F5001211D20DD56FF4787320
:10375000B3EB62520ED44FEAC12343F0004343EA75
:10376000505323FA02F070474FF00000704750EAC0
:10377000013002D14FF0FF3070474FF0000070472A
:103780004FEA4102B2F1E04324BFB3F5001CDCF183
:10379000FE5C0DD901F0004C4FEAC0024CEA5070BB
:1037A000B2F1004F40EB830008BF20F001007047EA
:1037B00011F0804F21D113F13872BCBF01F00040ED
:1037C000704741F480114FEA5252C2F11802C2F11F
:1037D000200C10FA0CF320FA02F018BF40F00100A0
:1037E0004FEAC1234FEAD32303FA0CFC40EA0C0052
:1037F00023FA02F34FEA4303CCE77FEA625307D18F
:1038000050EA01331EBF4FF0FE4040F440007047C5
:1038100001F0004040F0FE4040F40000704700BF5F
:1038200080F0004002E000BF81F0004142001FBF75
:103830005FEA410392EA030F7FEA226C7FEA236C7E
:103840006AD04FEA1262D2EB1363C1BFD218414073
:1038500048404140B8BF5B42192B88BF704710F009
:10386000004F40F4000020F07F4018BF404211F0AC
:10387000004F41F4000121F07F4118BF494292EA14
:10388000030F3FD0A2F1010241FA03FC10EB0C0040
:10389000C3F1200301FA03F100F0004302D54942CD
:1038A00060EB4000B0F5000F13D3B0F1807F06D37A
:1038B00040084FEA310102F10102FE2A51D2B1F172
:1038C000004F40EBC25008BF20F0010040EA030067
:1038D0007047490040EB000010F4000FA2F1010214
:1038E000EDD1B0FA80FCACF1080CB2EB0C0200FA9E
:1038F0000CF0AABF00EBC25052421843BCBFD040EC
:103900001843704792F0000F81F4000106BF80F465
:1039100000000132013BB5E74FEA41037FEA226C28
:1039200018BF7FEA236C21D092EA030F04D092F0F3
:10393000000F08BF0846704790EA010F1CBF002027
:10394000704712F07F4F04D1400028BF40F0004084
:10395000704712F100723CBF00F50000704700F0A4
:10396000004343F0FE4040F4000070477FEA2262CB
:1039700016BF08467FEA23630146420206BF5FEA9C
:10398000412390EA010F40F4800070474FF000039C
:1039900004E000BF10F0004348BF40425FEA000C63
:1039A00008BF704743F0964301464FF000001CE00B
:1039B00050EA010208BF70474FF000030AE000BF61
:1039C00050EA010208BF704711F0004302D540429F
:1039D00061EB41015FEA010C02BF84460146002011
:1039E00043F0B64308BFA3F18053A3F50003BCFA2C
:1039F0008CF2083AA3EBC25310DB01FA02FC6344D9
:103A000000FA02FCC2F12002BCF1004F20FA02F2DF
:103A100043EB020008BF20F00100704702F12002D2
:103A200001FA02FCC2F1200250EA4C0021FA02F233
:103A300043EB020008BF20EADC7070474FF0FF0C38
:103A40001CEAD0521EBF1CEAD15392EA0C0F93EA33
:103A50000C0F6FD01A4480EA010C400218BF5FEAD5
:103A600041211ED04FF0006343EA501043EA511148
:103A7000A0FB01310CF00040B1F5000F3EBF490042
:103A800041EAD3715B0040EA010062F17F02FD2A46
:103A90001DD8B3F1004F40EBC25008BF20F0010029
:103AA000704790F0000F0CF0004C08BF49024CEA40
:103AB000502040EA51207F3AC2BFD2F1FF0340EAD2
:103AC000C250704740F400004FF00003013A5DDC43
:103AD00012F1190FDCBF00F000407047C2F1000284
:103AE000410021FA02F1C2F1200200FA02FC5FEA71
:103AF000310040F1000053EA4C0308BF20EADC70BB
:103B0000704792F0000F00F0004C02BF400010F42C
:103B1000000F013AF9D040EA0C0093F0000F01F0D9
:103B2000004C02BF490011F4000F013BF9D041EAFB
:103B30000C018FE70CEAD15392EA0C0F18BF93EAFD
:103B40000C0F0AD030F0004C18BF31F0004CD8D127
:103B500080EA010000F00040704790F0000F17BFAE
:103B600090F0004F084691F0000F91F0004F14D0F4
:103B700092EA0C0F01D142020FD193EA0C0F03D14C
:103B80004B0218BF084608D180EA010000F000404F
:103B900040F0FE4040F40000704740F0FE4040F42A
:103BA000400070474FF0FF0C1CEAD0521EBF1CEAC9
:103BB000D15392EA0C0F93EA0C0F69D0A2EB0302E7
:103BC00080EA010C49024FEA402037D04FF0805381
:103BD00043EA111143EA10130CF000408B4238BF46
:103BE0005B0042F17D024FF4000C8B4224BF5B1A54
:103BF00040EA0C00B3EB510F24BFA3EB510340EAA2
:103C00005C00B3EB910F24BFA3EB910340EA9C004F
:103C1000B3EBD10F24BFA3EBD10340EADC001B01BF
:103C200018BF5FEA1C1CE0D1FD2A3FF650AF8B4263
:103C300040EBC25008BF20F0010070470CF0004C70
:103C40004CEA50207F32C2BFD2F1FF0340EAC2509B
:103C5000704740F400004FF00003013A37E792F05C
:103C6000000F00F0004C02BF400010F4000F013ABA
:103C7000F9D040EA0C0093F0000F01F0004C02BFB5
:103C8000490011F4000F013BF9D041EA0C0195E71E
:103C90000CEAD15392EA0C0F08D142027FF47DAFB7
:103CA00093EA0C0F7FF470AF084676E793EA0C0FA7
:103CB00004D14B023FF44CAF08466EE730F0004CA5
:103CC00018BF31F0004CCAD130F000427FF45CAF35
:103CD00031F000437FF43CAF5FE700BF53B94AB90E
:103CE000002908BF00281CBF4FF0FF314FF0FF3004
:103CF00000F0A6B9ADF1080C6DE904CE00F02AF889
:103D0000DDF804E0DDE9022304B07047D0B50022FD
:103D10000E4B06460F46FFF73BFAFFF711FD044630
:103D2000FFF7C0F900220A4BFFF732FA02460B46B2
:103D300030463946FFF778F8FFF702FD23460022A8
:103D400042EA000210461946D0BD00BF0000F03D17
:103D50000000F0412DE9F04F8C460C460546099EC7
:103D6000002B4FD18A4217466BD9B2FA82FEBEF1C0
:103D7000000F0BD0CEF1200520FA05F501FA0EF365
:103D800045EA030C02FA0EF700FA0EF5390CBCFBFB
:103D9000F1F0BAB201FB10C300FB02F84FEA154C78
:103DA0004CEA0344A04509D9E41900F1FF3380F03F
:103DB0002881A04540F2258102383C44C8EB040428
:103DC000B4FBF1F301FB134C03FB02F2ACB244EA87
:103DD0000C418A4209D9C91903F1FF3480F00F81DF
:103DE0008A4240F20C81023B39448A1A43EA00407D
:103DF0000021002E63D022FA0EF2002386E80C0088
:103E0000BDE8F08F8B4207D9002E56D0002186E8FE
:103E100011000846BDE8F08FB3FA83F1002940F0A5
:103E20009380A34202D3824200F2FE80851A64EBA3
:103E300003039C460120002E41D086E82010BDE8F7
:103E4000F08F12B90127B7FBF2F7B7FA87FEBEF180
:103E5000000F36D1E41B4FEA17481FFA87F90121FA
:103E6000B4FBF8F308FB134409FB03F24FEA154CCB
:103E70004CEA0444A24207D9E41903F1FF3002D20C
:103E8000A24200F2D3800346A41AB4FBF8F008FB68
:103E9000104809FB00F9ACB244EA0842914507D941
:103EA000D21900F1FF3402D2914500F2BA802046C7
:103EB000C9EB020240EA03409BE731463046BDE8C9
:103EC000F08F07FA0EF7CEF1200C24FA0CF34FEA2C
:103ED0001748B3FBF8FA1FFA87F908FB1A3520FADE
:103EE0000CFC04FA0EF40AFB09FB4CEA040C4FEA42
:103EF0001C4242EA05439B4500FA0EF50AD9DB193C
:103F00000AF1FF3280F08B809B4540F28880AAF155
:103F1000020A3B44CBEB0303B3FBF8F008FB10337E
:103F200000FB09F41FFA8CFC4CEA03439C4207D9BE
:103F3000DB1900F1FF326ED29C426CD902383B444F
:103F40001C1B40EA0A418BE7C1F1200E8B4022FA8C
:103F50000EFC4CEA030C24FA0EF74FEA1C49B7FB9F
:103F6000F9FA1FFA8CF309FB1A7720FA0EF88C4045
:103F70000AFB03F548EA04044FEA144848EA0747F5
:103F8000BD4202FA01F200FA01FB09D917EB0C0756
:103F90000AF1FF3041D2BD423FD9AAF1020A67447B
:103FA0007F1BB7FBF9F509FB157705FB03F3A4B2FB
:103FB00044EA0747BB4208D917EB0C0705F1FF306D
:103FC00027D2BB4225D9023D674445EA0A40A0FBFF
:103FD0000289FF1A4F4545464C4614D329D066B393
:103FE000BBEB050367EB040707FA0EFECB40CF409F
:103FF0004EEA030386E888000021BDE8F08F2346DF
:10400000F3E61846DAE6B8EB020569EB0C04013872
:10401000E5E70546D9E7104692E78246C0E79246B3
:1040200078E702383A4443E7084604E7023B3C4459
:104030002AE7C345E7D33C46D1E73146BDE8F08FD8
:10404000704700BF002100F0B7BE0A22002100F037
:1040500041BF000010B5054C13462CB10A4601467D
:104060000220AFF3008010BD204610BD000000000C
:10407000004870477800002010B5431E0A44914262
:1040800004D011F8014B03F8014FF8E710BD0346C7
:104090000244934202D003F8011BFAE77047000084
:1040A00038B5124B05461C68A36BD3B91820FDF731
:1040B000E5F843F20E33A06303804AF6CD33438024
:1040C00041F2342383804EF26D63C3804DF6EC637E
:1040D0000381052343810B23838101220023C0E94F
:1040E0000423A36B00221D615A6138BD74000020B7
:1040F000034611F8012B03F8012B002AF9D1704770
:10410000024B0146186800F003B800BF740000209D
:1041100070B5064608460C4600F00DF8451C2946C9
:104120003046FDF7CBF8064618B12A462146FFF780
:10413000A3FF304670BD034613F8012B002AFBD1C4
:10414000181A0138704730B582B1451E013915F88B
:10415000013F11F8014FA34206D1EC431444E04261
:1041600001D0002BF3D11C46181B30BD104630BDCA
:104170002DE9F0410F46904601F098FC04460D46AB
:10418000B8F1000F11D0C7F30A53C3F16B03002B32
:104190000BDD1B0503F17F55002405F54015224674
:1041A0002B46FEF7F5FFBDE8F08120462946BDE825
:1041B000F0810000000000002DE9F04F82460C461F
:1041C0009DB00023139218934FF000084FF00009A0
:1041D0001791179B1A780D2A05D8092A13D2002A9D
:1041E00000F0AD8112E02B2A04D02D2A04D0202A21
:1041F0000CD108E0002200E001220C925A1C179218
:104200005B782BB99BE101331793E2E700230C9312
:10421000179D2B78302B5CD16B78582B01D0782BE5
:104220004CD10C9BA84A019318AB009317A919AB6A
:10423000504600F0A4FE10F00706044600F0858505
:10424000062E05D10135002317950C9300F07DBD96
:10425000189A3AB135211AA801F00FFD1899504665
:1042600001F094F9062E22D8DFE806F0040D0818B4
:104270001D0D04004FF00009C84618E0DDF8688005
:10428000DDF86C9013E01B9B199A23F4801302F263
:104290003342DDF8688043EA025908E0DFF82C92E7
:1042A0004FF0000803E06FF000494FF0FF3821079E
:1042B00040F14B8549F0004900F047BD179B5A1C5F
:1042C00017925B78302BF9D0002B00F03E8501234C
:1042D00000E000230593179B0A22069300239B46C8
:1042E00002930493179D2E78A6F13003D9B20929C1
:1042F00011D8BBF1080FD5BF0499029902FB013315
:1043000002FB013305F10105D4BF049302930BF1C5
:10431000010B1795E6E75046FFF7AAFE07685046DF
:10432000FFF7A6FE0068FFF706FF3946024628465B
:10433000FFF709FF074628B1002033465D460246D5
:1043400001465AE05046FFF793FE0068FFF7F3FE80
:10435000179B1A1817921B5CBBF1000F45D15846EA
:10436000302B05D1179B01305A1C17925B78F7E769
:10437000A3F13102082A46D8179A06920246002075
:104380000546303B00F1010129D00A44294605EBDE
:10439000000C0A2661450FD0013101F1FF3EBEF14C
:1043A000080F03DC049F77430497F3E71029DEBF6F
:1043B000029F77430297EDE72844082800F10105A2
:1043C00005DC04980A2101FB0033049306E0102D5C
:1043D000DFBF02980A2101FB003302930021179BE3
:1043E000581C17905B78084602E05D4638463A460E
:1043F000A3F130010929C4D90121652B01D0452B36
:104400004FD16DB904E0652B40F0AD84002201214D
:1044100028B9059B002B00F09280054600E000259E
:10442000179C631C179363782B2B06D02D2B02D07F
:104430000026039606E0012300E000230393A31C5B
:104440001793A378A3F13006092E29D8302B04D175
:10445000179B5E1C17965B78F8E7A3F13106082ED0
:104460001FD8A3F1300E179B1F46179B5E1C179693
:104470005B78A3F1300CBCF1090F05D80A2606FBC6
:104480000E3EAEF1300EF0E7F61B082E44F61F6626
:1044900002DC7645A8BF7646039F1FB1764201E055
:1044A00017940026002D52D1002840F04E84059A22
:1044B000002A40F04A84002941D14E2B20D007DC4D
:1044C000492B0AD03BE000BF886208080000F07F5B
:1044D000692B02D06E2B13D031E0AA4917A800F047
:1044E0007FFF60B3179BA849013B17A8179300F003
:1044F00077FF10B9179B01331793DFF8A8921AE0E2
:10450000A24917A800F06CFFC8B1179B1B78282B95
:104510000FD11AAA9E4917A800F075FF052808D1E7
:104520001B9BDDF8688043F0FF4949F4E00900F087
:104530000CBCDFF874924FF0000800F006BC139B2F
:104540001794002B00F00C8400230C93FFE32C46FF
:10455000BBF1000F08BFAB460498102DA8BF102474
:10456000B71AFEF79FFD092C8046894613DD894B5B
:1045700003EBC40353E91223FEF70AFE80460298B8
:104580008946FEF78FFD02460B4640464946FEF738
:104590004DFC804689460F2D33DC002F00F0D5837B
:1045A00022DD162F07DC7B4D424605EBC7014B464B
:1045B000D1E9000113E0C5F125039F4221DC754CD0
:1045C000C5F10F0504EBC5017D1B4246D1E9000191
:1045D0004B4604EBC504FEF7DBFDD4E90023FEF7F0
:1045E000D7FD80468946B0E317F1160F09DB694D08
:1045F0004046A5EBC703D3E900234946FEF7F2FE88
:10460000EFE72C1B3C44002C5DDD14F00F010AD0B9
:10461000604B424603EBC101D1E900014B46FEF776
:10462000B7FD8046894634F00F0400F0C180B4F530
:104630009A7F0FDD4FF0000BCDF808B0CDF814B025
:10464000CDF810B02223CAF80030DFF858914FF0AF
:10465000000889E14046494600234F4E2411029349
:10466000012C0CDDE20704D5D6E90023FEF790FD0E
:104670000123029A6410013202920836F0E70BB16E
:1046800080468946444B029AA9F1547903EBC20152
:10469000D1E9000142464B46FEF77AFD21F0004386
:1046A00089460A461B0D3D491B058B428046C1D8F1
:1046B000A1F580118B4286BFDFF8F0904FF0FF38F4
:1046C00002F1547974E073D0644214F00F020AD0FE
:1046D000304B404603EBC2034946D3E90023FEF7C3
:1046E00081FE80468946241162D01F2C08DD4FF0E0
:1046F000000BCDF808B0CDF814B0CDF810B02CE117
:104700004046494614F0100F0CBF00236A23244E84
:1047100003930023002C09DDE20704D5D6E900232A
:10472000FEF736FD012364100836F3E70BB180462F
:104730008946039BEBB1C9F30A53C3F16B03002B0A
:10474000494616DD1F2B0EDD342BDEBF203B4FF01C
:10475000FF3202FA03F34FF00008CCBF4FF05C7950
:1047600003EA010905E04FF0FF3202FA03F303EA1E
:1047700008080022002340464946FEF771FF002842
:10478000B5D117E09C6208089F620808A562080876
:10479000A8620808E8620808B06308080000A07C66
:1047A000C06208080000F07F0000F8FFFFFFEF7F05
:1047B00000230393049B5A46009306992B465046C8
:1047C00000F036FF059000283FF434AF002FC7F10A
:1047D0000003A8BF00230D934FF0000B27EAE773F7
:1047E0001293CDF808B0059B5046596800F099FE29
:1047F000049000283FF426AF059B0C301A6903F1A2
:104800000C0102329200FFF737FC1AAB019319AB8F
:10481000009342464B465046CDE9088901F0B7F96E
:10482000189000283FF40EAF0121504600F08BFF96
:10483000029000283FF406AF199B0399002BACBFF0
:104840000D9A129A1A9CACBFD618D21AA3EB010388
:104850002344B14903F1FF33ACBF129A0D9E8B4242
:10486000C4F1360480F28580C91A1F29C8BFAB4D38
:104870004FF00107D4BF07FA01F3ED1AA4EB0104CE
:10488000D9BF0793002507FA05F507973719039B4A
:10489000BE4214441C443346A8BF3B46A342A8BFB3
:1048A0002346002BC2BFFF1AE41AF61A0D9B002BF9
:1048B00063D1002F7ADC129B002B40F08180002C0A
:1048C00000F38880002E00F38F80049A18995046D8
:1048D00001F08DF8834600283FF4B4AEC36800248D
:1048E000C4600299069301F066F8A04280F28B80C2
:1048F000069B002B40F00282B8F1000F40F0FE81D1
:10490000C9F31303002B40F0F98129F000431B0D7C
:104910001B05B3F1D66F40F2F181DBF81430002BA8
:104920006CD059460122504600F0F4FF02998346AC
:1049300001F041F8002840F3E18129F00043039A97
:104940001B0D1B05002A00F08D80B3F1D66F00F31C
:104950008980B3F15C7F00F3D38122234FF00008FC
:104960004FF00009CAF80030059B002B40F0D981B8
:10497000EBE101230025079388E71A460299504688
:1049800000F07AFF029000283FF45CAE0146189ACE
:10499000504600F0E1FE069000283FF453AE18990F
:1049A000504600F0F3FD069B189382E73A461899AB
:1049B000504600F0AFFF189000287FF47CAF41E62E
:1049C000129A0499504600F057FF049000287FF493
:1049D00076AF37E622460499504600F09BFF0490DC
:1049E00000287FF46FAF2DE632460299504600F062
:1049F00091FF029000287FF468AF23E6DBF81030C7
:104A0000012B8EDC7AE161D1069AC9F3130322B33C
:104A100043494A468B422ED1039B414663B1414BE9
:104A20001340B3F1D46F07D81B0DC3F16B034FF0E4
:104A3000FF3000FA03F301E04FF0FF338B421AD14D
:104A400039498A4202D101333FF4FCAD354B4FF076
:104A50000008134003F5801950E163B9B8F1000F65
:104A600009D16AE7A3F580136FEA13594FF0FF38B5
:104A70006FEA095942E115B115EA090F02E0079BF7
:104A800013EA080F00F03A81069B039A4046494614
:104A900053B1FFF76DFB02460B46DDE90801FEF757
:104AA000C5F98046894629E1FFF762FB02460B46BD
:104AB000DDE90801FEF7B8F90022002380468946A7
:104AC000FEF7CEFD00287FF448AF17E10299584663
:104AD00001F0ABF800224FF0804306460F46FEF788
:104AE000D3FD00283FD0069B13B100260F4F10E0E6
:104AF000B8F1000F03D1C9F313033BB91AE0B8F1C1
:104B0000010F03D1B9F1000F3FF427AF084F002682
:104B10000024064D3CE000BF02FCFFFFE2FBFFFF6C
:104B2000FFFF0F000000F07FFFFFEF7F0000F03F6E
:104B30000000F0BF00229A4B30463946FEF79AFD3E
:104B400040B90022974B30463946FEF721FB044618
:104B50000D4601E0069C934D05F100431494159316
:104B6000DDE9146714E08F4B002230463946FEF72A
:104B70000FFB069B04460D4623B901F100430E903E
:104B80000F9303E002460B46CDE90E23DDE90E67E5
:104B900029F000431B0D1B050793079A824B9A428D
:104BA0002BD1DDE90823A9F1547940464946CDE9E6
:104BB0000A2300F07BFF02460B4630463946FEF7DB
:104BC000E7FA42464B46FEF731F921F000431B0D50
:104BD000764A1B05934280460CD9754B0B9A9A4234
:104BE00003D10A9B01333FF42DADDFF8C4914FF0A0
:104BF000FF3872E001F1547939E0039B3BB3079B26
:104C0000B3F1D46F23D85EA3D3E90023204629460D
:104C1000FEF73AFDB8B129462046FEF791FD00287F
:104C200008BF0120FEF73EFA069B04460D4623B955
:104C300001F100431090119303E002460B46CDE9C9
:104C40001023DDE91067079A07F1D6639F1ADDE9A3
:104C5000080100F02BFF02460B4630463946FEF7AE
:104C600097FADDE90823FEF7E1F880468946039BC1
:104C70009BBB29F000431B0D079A1B059A424E4629
:104C80002BD129462046FEF733FDFEF71BFA0B46D3
:104C9000024629462046FEF7C7F8069B04460D4605
:104CA0002BB9B8F1000F02D1C9F313067EB136A3B8
:104CB000D3E9002320462946FEF7DCFC88BB34A359
:104CC000D3E9002320462946FEF7F2FC04E032A394
:104CD000D3E90023FEF7CEFC18BB1899504600F02C
:104CE00055FC0499504600F051FC0299504600F0E2
:104CF0004DFC5946504600F049FC74E5039B83B1D6
:104D00002C4B40460B9300230A934946DDE90A23C6
:104D1000FEF73EFA8046894619B910B92223CAF82F
:104D200000301899504600F031FC0499504600F0CC
:104D30002DFC0299504600F029FC0599504600F0E0
:104D400025FC5946504600F021FC139B13B1179BDC
:104D5000139A13600C9B1BB1424609F1004307E014
:104D600042464B4604E000252A460121FFF747BB97
:104D7000104619461DB0BDE8F08F00BFAFF30080AC
:104D80000000C0FFFFFFDF419535A094FFFFDF3F2C
:104D900035E5AF350000E03F9535A094FFFFCF3FEC
:104DA0000000F03F0000E03F0000E07FFFFF9F7C3D
:104DB000FFFFEF7F00005039024B0A46014618689A
:104DC000FFF7FAB9740000202DE9F0470F4680463E
:104DD0003F48D0F800903D4615F8014B09EB040020
:104DE000407800F0080000F0FF0608B12F46F2E717
:104DF0002D2C03D1BD1C7C78012603E02B2C04BF95
:104E00007C78BD1C13B1102B0AD15BE0302C57D13C
:104E1000287800F0DF0058284DD16C781023023537
:104E2000002E14BF4FF0004C6FF0004CBCFBF3FAA7
:104E30000027384603FB1ACC09EB040E9EF801E06C
:104E40001EF0040F01D0303C0BE01EF0030E1BD00F
:104E5000BEF1010F0CBF4FF0370E4FF0570ECEEBE7
:104E60000404A34210DDB7F1FF3F0AD0504506D835
:104E700001D1644503DC03FB0040012701E04FF052
:104E8000FF3715F8014BD7E77B1C0CD1002E4FF0F4
:104E9000220314BF4FF000406FF00040C8F800300C
:104EA0002AB9BDE8F08706B1404272B107B1691E68
:104EB0001160BDE8F0873024002BB1D10823AFE7A3
:104EC0000A23ADE7302CA3D0AAE7BDE8F08700BFE6
:104ED0001000002013460A46014602480068FFF70A
:104EE00073BF00BF74000020F0B506694B11B342D8
:104EF00000F1140527DA11F01F0105EB860605EB1A
:104F0000830201D1294616E0141D55F823202B46B3
:104F1000C1F1200ECA40B44209D2276807FA0EF741
:104F20003A4343F8042B54F8042BCA40F3E71A60C1
:104F300052B1043308E0B2420B4605D252F8043BAA
:104F400041F8043BF7E72B465B1B9B10036103B959
:104F50004361F0BDA0F13003092B01D820380AE0ED
:104F6000A0F16103052B01D8473804E0A0F141030B
:104F7000052B02D82738C0B27047002070472DE9B2
:104F8000F04F8BB08A46904606930290FFF770F878
:104F900003684FF0000B18460393FFF7CCF8039B10
:104FA0000190034413F8013C0793DAF80030023310
:104FB0001F4613F8010B302802D10BF1010BF7E764
:104FC000FFF7C8FF0446E0B9019A03993846FFF796
:104FD000BAF8002834D1019BF85CFE18FFF7BAFF3D
:104FE00080B3334618781F46302803F10103F9D007
:104FF000FFF7B0FFB0FA80F534466D094FF0010BB2
:1050000001E000252C463A46164630780132FFF77B
:10501000A1FF0028F8D1019A03993046FFF793F8D1
:1050200050B954B9019BF418224616463078013223
:10503000FFF790FF0028F8D134B1A41BA40003E0CF
:105040003E4600E0044601253378502B01D0702BFA
:105050002AD173782B2B08D02D2B03D0711C4FF045
:10506000000905E04FF0010901E04FF00009B11C13
:105070000878FFF76FFF431EDBB2182B14D8A0F19E
:10508000100211F8010FFFF765FF431EDBB2182B6A
:1050900004D80A2303FB0202103AF2E7B9F1000F29
:1050A00000D05242144400E03146CAF800102DB13D
:1050B000BBF1000F14BF002006207CE12946F31B42
:1050C000013B072B02DD01315B10FAE7029800F08B
:1050D00028FA4FF000090546CB46019B00F1140A5F
:1050E000C3F10103CDF810A00893B7422FD2731E6D
:1050F0000593079A16F8013C93420BD0BBF1200FA1
:1051000016D1049BC3F8009004334FF000090493B8
:10511000CB460DE0059B089A13449F42EED81846F3
:10512000019A03990993FFF70EF8099B68B1E5E727
:1051300016F8010CFFF70EFF00F00F0000FA0BF05D
:10514000059B49EA00090BF1040B1E46CDE70498C4
:1051500040F8049BCAEB00008010286147014846D4
:1051600000F0A4FAD8F80060381AB04226DD871B98
:105170003946284600F09BFDC8B17B1E591103F04B
:105180001F024FF001095AF8211009FA02F20A42EF
:105190000ED04B4502DC4FF0020909E0B91E28464B
:1051A00000F085FD0028F6D04FF0030900E08146AD
:1051B00039462846FFF798FE3C440CE009DA371AD6
:1051C00029463A46029800F0A5FB0546E41B00F18B
:1051D000140A4FF00009D8F808309C4208DD029804
:1051E000294600F0D3F9149A00231360A320E2E0CB
:1051F000D8F80400844253DA041BA6422EDCD8F807
:105200000C30022B1AD0032B1CD0012B1DD1A6422F
:105210001BD1012E0BDCD8F80430069A62201360F3
:1052200001232B61CAF80030149B1D60C3E0711E7E
:10523000284600F03CFD0028EDD106E0159B002B30
:10524000E9D002E0159B002BE5D10298294600F039
:105250009DF9149A002313605020ACE0671EB9F149
:10526000000F06D13FB13946284600F020FD8146A7
:1052700001E04FF001097A11012307F01F0703FA3B
:1052800007F75AF8223021461F42284618BF49F036
:105290000209361BFFF728FE0227D8F8044000E079
:1052A0000127B9F1000F00F08180D8F80C30022BF3
:1052B0000ED0032B10D0012B76D119F0020F73D032
:1052C000DAF8000049EA000919F0010F07D16BE094
:1052D000159BC3F101031593159B002B64D0D5F8E2
:1052E00010A005F114034FEA8A0903EB090100201D
:1052F0001A68B2F1FF3F02D001321A6020E043F891
:10530000040B9942F4D8AB689A4512DB696802989D
:10531000013100F006F983462A6905F10C010232D9
:1053200092000C30FEF7A8FE2946029800F02EF9F4
:105330005D462B695A1C2A6105EB830301225A61E1
:10534000022F05F1140211D1D8F80030013B9E4222
:1053500027D17111012306F01F0603FA06F652F851
:1053600021301E420CBF022701271AE02B699A4503
:105370000ADA01212846FFF7B7FDD8F808300134D2
:105380009C423FF72CAF0BE016F01F0608D091446B
:1053900059F8040C00F08AF9C6F12006B042E8DBA7
:1053A000012747F0200701E047F010073846149B1B
:1053B0001D60069B1C600BB0BDE8F08FC2F10802B7
:1053C000920070B5C2F120064368056803FA06F43E
:1053D0002C43D340046040F8043F8842F4D370BDAE
:1053E00030B5036811F8014B01334CB11A78A2F1C2
:1053F0004105192D98BF2032A242F3D0002030BDC4
:105400000360012030BD0B682DE9F04F5E1102EB07
:10541000860613F01F0318BF0436351F17460022F7
:105420008246A8462C46914685B0D0F800B001933C
:1054300046F8042C00921BF8011F00293CD00846B6
:1054400003920291FFF786FD039A00BB029920297F
:1054500016D8009B9945EEDD444505D2072A03DCAA
:1054600041462046FFF7AAFFBC4223D90023A4F1FE
:10547000040844F8043CCDF8009044461A46DAE7A4
:10548000292948D10BF10103CAF8003014E0013298
:10549000082A09F1010906DDBC42CCD9002344F8F1
:1054A000043C0122043C216800F00F0040EA011096
:1054B0002060C0E70822BEE7B9F1000F2BD04445B9
:1054C00005D2072A03DC41462046FFF777FFBC429E
:1054D0000CD93B4654F8042BA54243F8042BF9D2CF
:1054E000002243F8042B9D42FBD20BE0019B4BB101
:1054F000C3F120024FF0FF33D34056F8042C134081
:1055000046F8043C2B6843B9BD4202D101232B600D
:1055100003E0043DF6E7042000E0052005B0BDE807
:10552000F08F70B5456A04460E463DB91020FBF772
:10553000A5FE6062456085600560C560656AEB68D0
:1055400043B1636ADB6853F8260078B1026843F818
:10555000262017E021220421204600F0CAFB636ABE
:10556000E860DB68002BECD1002070BD012101FA5E
:1055700006F56A1D9200204600F0BBFB0028F3D020
:105580004660856000230361C36070BD70B5446AE6
:1055900006460D463CB91020FBF770FE7062446071
:1055A00084600460C4603DB1736A6A68DB6853F864
:1055B0002210296043F8225070BD2DE9F0410646C3
:1055C0000C460D691F4601F1140E0023DEF80000A1
:1055D000013381B202FB0171000C0F0C02FB007061
:1055E00089B201EB00419D424FEA10474EF8041B7F
:1055F000ECDCD7B1A3689D4212DB61683046013113
:10560000FFF78FFF8046226904F10C0102329200FD
:105610000C30FEF731FD21463046FFF7B7FF444618
:1056200004EB850301355F6125612046BDE8F0810B
:105630002DE9F843064615461F46092208330C4655
:1056400093FBF2F3002101229A4202DA5200013167
:10565000FAE73046FFF765FF089B092D43614FF0DD
:105660000103036111DD04F10908C1462C4419F856
:10567000013B0146303B0A223046FFF79EFFA14521
:10568000F5D108EB0504083C01E00A3409252D1B7F
:1056900063199F4208DD14F8013B0146303B0A22A2
:1056A0003046FFF78AFFF3E7BDE8F883030C1B04DD
:1056B00013B90004102300E0002310F07F4F04BF53
:1056C0000002083310F0704F04BF0001043310F0E3
:1056D000404F04BF80000233002803DB420003D5A3
:1056E000581C70471846704720207047036813F015
:1056F00007020BD0D90722D49A074BBF5B089B083F
:10570000036003604CBF01200220704799B209B9C1
:105710001B0C102213F0FF0F04BF1B0A08321907DD
:1057200004BF1B090432990704BF9B080232D90742
:1057300002D45B0805D00132036010467047002098
:1057400070472020704710B50C460121FFF7E9FE95
:1057500001224461026110BD2DE9F74F14460A6928
:10576000236988469A42BEBF0B46A0461C46D8F81D
:105770001070D4F81090D8F80830D8F8041007EB5F
:1057800009069E42C8BF0131FFF7CBFE00F11405A8
:105790002B4605EB860C0022634502D243F8042B0E
:1057A000FAE704F1140208F1140102EB890301EB9A
:1057B00087070093009B0192934257D9B2F800B03B
:1057C000BBF1000F23D08946AE464FF0000859F8D0
:1057D000044BBEF800A0A3B20BFB03A34FEA144A8C
:1057E000DEF8004043444FEA14480BFB0A84F246BB
:1057F00004EB13449BB243EA04434F454FEA144879
:105800004AF8043B01D9D646E1E7CEF80480019B73
:105810000432B3F802A0BAF1000F21D02C46894619
:105820002B684FF00008B9F800E0B4F802B09BB262
:105830000AFB0EBEA346F04443EA08434BF8043B80
:1058400059F8043BB4F804E01B0C0AFB03E34F4592
:1058500003EB18434FEA134801D95C46E3E7636062
:105860000435A7E75CF8043D13B9013E002EF9DCCE
:10587000066103B0BDE8F08F2DE9F843154612F03C
:10588000030206460F4607D0214C013A002354F884
:105890002220FFF792FE0746AD1036D0746A3CB95D
:1058A0001020FBF7EBFC7062446084600460C4600D
:1058B000D6F82480D8F808404CB940F2712130461F
:1058C000FFF741FF04460023C8F8080003604FF0CB
:1058D0000008EB070AD5394622463046FFF73CFF61
:1058E000814639463046FFF751FE4F466D100CD0C9
:1058F000206808B10446ECE7224621463046FFF70F
:105900002BFF2060C0F80080F4E73846BDE8F8833C
:10591000D86308082DE9F0470C46074691462669EA
:105920004FEA621A56444968A368751CAB4202DA12
:1059300001315B00FAE73846FFF7F3FD00238046AC
:105940001A4600F11401534503DA41F823200133CC
:10595000F9E72AEAEA73206901EB830319F01F09CA
:1059600004F1140101EB800E14D0C9F1200C0022C7
:1059700008689A4600FA09F0024343F8042B51F8EC
:10598000042B8E4522FA0CF2F2D8CAF8042042B158
:10599000B51C06E0043B51F8042B8E4543F8042F58
:1059A000F9D8013D3846C8F810502146FFF7EEFD02
:1059B0004046BDE8F08703690A6910B59B1A11D10A
:1059C00092001430143183180A4453F8044D52F8ED
:1059D000041D8C4202D007D3012010BD9842F4D39D
:1059E000002010BD184610BD4FF0FF3010BD2DE94E
:1059F000F8430C460746114620461546FFF7DBFFE5
:105A0000061E08D131463846FFF78BFD012303619E
:105A10004661BDE8F883BCBF23462C463846616822
:105A2000BABF1D4601260026FFF77BFD2B69C66025
:105A3000266905F1140904F1140101EB860709EB4D
:105A4000830800F114054FF0000C51F8042B59F8AD
:105A5000044B93B29C44A3B2240CC3EB0C03C4EBE1
:105A6000124202EB23429BB24FEA224CC84543EA62
:105A700002428E4645F8042BE7D8BE450ED25EF8AA
:105A8000041B8AB26244131403EB114392B242EA3C
:105A900003424FEA234C45F8042BEEE755F8043D4A
:105AA0000BB9013EFAE70661BDE8F883104B0B40E5
:105AB000A3F15073002B02DD0020194670475B42B2
:105AC0001B15132B4FF000004FF0000104DC4FF4C6
:105AD000002242FA03F17047143B1E2B4FF00102E3
